{
  "contractName": "SecureAuction",
  "abi": [
    {
      "inputs": [],
      "stateMutability": "nonpayable",
      "type": "constructor"
    },
    {
      "anonymous": false,
      "inputs": [
        {
          "indexed": true,
          "internalType": "address",
          "name": "owner",
          "type": "address"
        },
        {
          "indexed": true,
          "internalType": "address",
          "name": "approved",
          "type": "address"
        },
        {
          "indexed": true,
          "internalType": "uint256",
          "name": "tokenId",
          "type": "uint256"
        }
      ],
      "name": "Approval",
      "type": "event"
    },
    {
      "anonymous": false,
      "inputs": [
        {
          "indexed": true,
          "internalType": "address",
          "name": "owner",
          "type": "address"
        },
        {
          "indexed": true,
          "internalType": "address",
          "name": "operator",
          "type": "address"
        },
        {
          "indexed": false,
          "internalType": "bool",
          "name": "approved",
          "type": "bool"
        }
      ],
      "name": "ApprovalForAll",
      "type": "event"
    },
    {
      "anonymous": false,
      "inputs": [
        {
          "indexed": false,
          "internalType": "uint256",
          "name": "_auctionItemIds",
          "type": "uint256"
        },
        {
          "indexed": false,
          "internalType": "string",
          "name": "name",
          "type": "string"
        },
        {
          "indexed": true,
          "internalType": "address payable",
          "name": "seller",
          "type": "address"
        },
        {
          "indexed": false,
          "internalType": "uint256",
          "name": "price",
          "type": "uint256"
        },
        {
          "indexed": false,
          "internalType": "uint256",
          "name": "nowTime",
          "type": "uint256"
        },
        {
          "indexed": false,
          "internalType": "uint256",
          "name": "timePeriod",
          "type": "uint256"
        }
      ],
      "name": "LogAddItem",
      "type": "event"
    },
    {
      "anonymous": false,
      "inputs": [
        {
          "indexed": true,
          "internalType": "address",
          "name": "bidder",
          "type": "address"
        },
        {
          "indexed": true,
          "internalType": "uint256",
          "name": "auctionItemId",
          "type": "uint256"
        },
        {
          "indexed": false,
          "internalType": "uint256",
          "name": "bid",
          "type": "uint256"
        },
        {
          "indexed": true,
          "internalType": "address",
          "name": "highestBidder",
          "type": "address"
        },
        {
          "indexed": false,
          "internalType": "uint256",
          "name": "highestBid",
          "type": "uint256"
        },
        {
          "indexed": false,
          "internalType": "uint256",
          "name": "highestBindingBid",
          "type": "uint256"
        }
      ],
      "name": "LogBid",
      "type": "event"
    },
    {
      "anonymous": false,
      "inputs": [
        {
          "indexed": true,
          "internalType": "uint256",
          "name": "auctionItemId",
          "type": "uint256"
        },
        {
          "indexed": true,
          "internalType": "address",
          "name": "seller",
          "type": "address"
        },
        {
          "indexed": true,
          "internalType": "address",
          "name": "winner",
          "type": "address"
        }
      ],
      "name": "LogCanceled",
      "type": "event"
    },
    {
      "anonymous": false,
      "inputs": [
        {
          "indexed": true,
          "internalType": "uint256",
          "name": "auctionItemId",
          "type": "uint256"
        },
        {
          "indexed": true,
          "internalType": "address",
          "name": "withdrawer",
          "type": "address"
        },
        {
          "indexed": true,
          "internalType": "address",
          "name": "withdrawalAccount",
          "type": "address"
        },
        {
          "indexed": false,
          "internalType": "uint256",
          "name": "amount",
          "type": "uint256"
        }
      ],
      "name": "LogWithdrawal",
      "type": "event"
    },
    {
      "anonymous": false,
      "inputs": [
        {
          "indexed": true,
          "internalType": "address",
          "name": "from",
          "type": "address"
        },
        {
          "indexed": true,
          "internalType": "address",
          "name": "to",
          "type": "address"
        },
        {
          "indexed": true,
          "internalType": "uint256",
          "name": "tokenId",
          "type": "uint256"
        }
      ],
      "name": "Transfer",
      "type": "event"
    },
    {
      "inputs": [],
      "name": "_auctionItemIds",
      "outputs": [
        {
          "internalType": "uint256",
          "name": "",
          "type": "uint256"
        }
      ],
      "stateMutability": "view",
      "type": "function",
      "constant": true
    },
    {
      "inputs": [],
      "name": "_tokenIds",
      "outputs": [
        {
          "internalType": "uint256",
          "name": "",
          "type": "uint256"
        }
      ],
      "stateMutability": "view",
      "type": "function",
      "constant": true
    },
    {
      "inputs": [
        {
          "internalType": "address",
          "name": "to",
          "type": "address"
        },
        {
          "internalType": "uint256",
          "name": "tokenId",
          "type": "uint256"
        }
      ],
      "name": "approve",
      "outputs": [],
      "stateMutability": "nonpayable",
      "type": "function"
    },
    {
      "inputs": [
        {
          "internalType": "address",
          "name": "owner",
          "type": "address"
        }
      ],
      "name": "balanceOf",
      "outputs": [
        {
          "internalType": "uint256",
          "name": "",
          "type": "uint256"
        }
      ],
      "stateMutability": "view",
      "type": "function",
      "constant": true
    },
    {
      "inputs": [],
      "name": "baseURI",
      "outputs": [
        {
          "internalType": "string",
          "name": "",
          "type": "string"
        }
      ],
      "stateMutability": "view",
      "type": "function",
      "constant": true
    },
    {
      "inputs": [
        {
          "internalType": "uint256",
          "name": "",
          "type": "uint256"
        }
      ],
      "name": "bid",
      "outputs": [
        {
          "internalType": "uint256",
          "name": "highestBindingBid",
          "type": "uint256"
        },
        {
          "internalType": "address payable",
          "name": "highestBidder",
          "type": "address"
        }
      ],
      "stateMutability": "view",
      "type": "function",
      "constant": true
    },
    {
      "inputs": [
        {
          "internalType": "uint256",
          "name": "",
          "type": "uint256"
        },
        {
          "internalType": "address",
          "name": "",
          "type": "address"
        }
      ],
      "name": "fundsByBidder",
      "outputs": [
        {
          "internalType": "uint256",
          "name": "",
          "type": "uint256"
        }
      ],
      "stateMutability": "view",
      "type": "function",
      "constant": true
    },
    {
      "inputs": [
        {
          "internalType": "uint256",
          "name": "tokenId",
          "type": "uint256"
        }
      ],
      "name": "getApproved",
      "outputs": [
        {
          "internalType": "address",
          "name": "",
          "type": "address"
        }
      ],
      "stateMutability": "view",
      "type": "function",
      "constant": true
    },
    {
      "inputs": [
        {
          "internalType": "address",
          "name": "owner",
          "type": "address"
        },
        {
          "internalType": "address",
          "name": "operator",
          "type": "address"
        }
      ],
      "name": "isApprovedForAll",
      "outputs": [
        {
          "internalType": "bool",
          "name": "",
          "type": "bool"
        }
      ],
      "stateMutability": "view",
      "type": "function",
      "constant": true
    },
    {
      "inputs": [],
      "name": "name",
      "outputs": [
        {
          "internalType": "string",
          "name": "",
          "type": "string"
        }
      ],
      "stateMutability": "view",
      "type": "function",
      "constant": true
    },
    {
      "inputs": [],
      "name": "owner",
      "outputs": [
        {
          "internalType": "address",
          "name": "",
          "type": "address"
        }
      ],
      "stateMutability": "view",
      "type": "function",
      "constant": true
    },
    {
      "inputs": [
        {
          "internalType": "uint256",
          "name": "tokenId",
          "type": "uint256"
        }
      ],
      "name": "ownerOf",
      "outputs": [
        {
          "internalType": "address",
          "name": "",
          "type": "address"
        }
      ],
      "stateMutability": "view",
      "type": "function",
      "constant": true
    },
    {
      "inputs": [
        {
          "internalType": "address",
          "name": "from",
          "type": "address"
        },
        {
          "internalType": "address",
          "name": "to",
          "type": "address"
        },
        {
          "internalType": "uint256",
          "name": "tokenId",
          "type": "uint256"
        }
      ],
      "name": "safeTransferFrom",
      "outputs": [],
      "stateMutability": "nonpayable",
      "type": "function"
    },
    {
      "inputs": [
        {
          "internalType": "address",
          "name": "from",
          "type": "address"
        },
        {
          "internalType": "address",
          "name": "to",
          "type": "address"
        },
        {
          "internalType": "uint256",
          "name": "tokenId",
          "type": "uint256"
        },
        {
          "internalType": "bytes",
          "name": "_data",
          "type": "bytes"
        }
      ],
      "name": "safeTransferFrom",
      "outputs": [],
      "stateMutability": "nonpayable",
      "type": "function"
    },
    {
      "inputs": [
        {
          "internalType": "address",
          "name": "operator",
          "type": "address"
        },
        {
          "internalType": "bool",
          "name": "approved",
          "type": "bool"
        }
      ],
      "name": "setApprovalForAll",
      "outputs": [],
      "stateMutability": "nonpayable",
      "type": "function"
    },
    {
      "inputs": [
        {
          "internalType": "bytes4",
          "name": "interfaceId",
          "type": "bytes4"
        }
      ],
      "name": "supportsInterface",
      "outputs": [
        {
          "internalType": "bool",
          "name": "",
          "type": "bool"
        }
      ],
      "stateMutability": "view",
      "type": "function",
      "constant": true
    },
    {
      "inputs": [],
      "name": "symbol",
      "outputs": [
        {
          "internalType": "string",
          "name": "",
          "type": "string"
        }
      ],
      "stateMutability": "view",
      "type": "function",
      "constant": true
    },
    {
      "inputs": [
        {
          "internalType": "uint256",
          "name": "index",
          "type": "uint256"
        }
      ],
      "name": "tokenByIndex",
      "outputs": [
        {
          "internalType": "uint256",
          "name": "",
          "type": "uint256"
        }
      ],
      "stateMutability": "view",
      "type": "function",
      "constant": true
    },
    {
      "inputs": [
        {
          "internalType": "address",
          "name": "owner",
          "type": "address"
        },
        {
          "internalType": "uint256",
          "name": "index",
          "type": "uint256"
        }
      ],
      "name": "tokenOfOwnerByIndex",
      "outputs": [
        {
          "internalType": "uint256",
          "name": "",
          "type": "uint256"
        }
      ],
      "stateMutability": "view",
      "type": "function",
      "constant": true
    },
    {
      "inputs": [
        {
          "internalType": "uint256",
          "name": "tokenId",
          "type": "uint256"
        }
      ],
      "name": "tokenURI",
      "outputs": [
        {
          "internalType": "string",
          "name": "",
          "type": "string"
        }
      ],
      "stateMutability": "view",
      "type": "function",
      "constant": true
    },
    {
      "inputs": [],
      "name": "totalSupply",
      "outputs": [
        {
          "internalType": "uint256",
          "name": "",
          "type": "uint256"
        }
      ],
      "stateMutability": "view",
      "type": "function",
      "constant": true
    },
    {
      "inputs": [
        {
          "internalType": "address",
          "name": "from",
          "type": "address"
        },
        {
          "internalType": "address",
          "name": "to",
          "type": "address"
        },
        {
          "internalType": "uint256",
          "name": "tokenId",
          "type": "uint256"
        }
      ],
      "name": "transferFrom",
      "outputs": [],
      "stateMutability": "nonpayable",
      "type": "function"
    },
    {
      "inputs": [
        {
          "internalType": "uint256",
          "name": "price",
          "type": "uint256"
        },
        {
          "internalType": "string",
          "name": "tokenURI",
          "type": "string"
        },
        {
          "internalType": "uint256",
          "name": "_bidincrement",
          "type": "uint256"
        },
        {
          "internalType": "uint256",
          "name": "timePeriod",
          "type": "uint256"
        },
        {
          "internalType": "string",
          "name": "name",
          "type": "string"
        }
      ],
      "name": "addAuctionItem",
      "outputs": [],
      "stateMutability": "nonpayable",
      "type": "function"
    },
    {
      "inputs": [
        {
          "internalType": "uint256",
          "name": "id",
          "type": "uint256"
        }
      ],
      "name": "getAuctionItem",
      "outputs": [
        {
          "internalType": "uint256",
          "name": "",
          "type": "uint256"
        },
        {
          "internalType": "uint256",
          "name": "",
          "type": "uint256"
        },
        {
          "internalType": "string",
          "name": "",
          "type": "string"
        },
        {
          "internalType": "uint256",
          "name": "",
          "type": "uint256"
        },
        {
          "internalType": "uint256",
          "name": "",
          "type": "uint256"
        },
        {
          "internalType": "uint256",
          "name": "",
          "type": "uint256"
        },
        {
          "internalType": "bool",
          "name": "",
          "type": "bool"
        },
        {
          "internalType": "string",
          "name": "",
          "type": "string"
        },
        {
          "internalType": "address payable",
          "name": "",
          "type": "address"
        }
      ],
      "stateMutability": "view",
      "type": "function",
      "constant": true
    },
    {
      "inputs": [
        {
          "internalType": "uint256",
          "name": "id",
          "type": "uint256"
        }
      ],
      "name": "cancelAuction",
      "outputs": [
        {
          "internalType": "bool",
          "name": "success",
          "type": "bool"
        }
      ],
      "stateMutability": "payable",
      "type": "function",
      "payable": true
    },
    {
      "inputs": [
        {
          "internalType": "uint256",
          "name": "value",
          "type": "uint256"
        },
        {
          "internalType": "bool",
          "name": "fake",
          "type": "bool"
        },
        {
          "internalType": "uint256",
          "name": "secret",
          "type": "uint256"
        }
      ],
      "name": "generateSHA256Bytes32",
      "outputs": [
        {
          "internalType": "bytes32",
          "name": "",
          "type": "bytes32"
        }
      ],
      "stateMutability": "view",
      "type": "function",
      "constant": true
    },
    {
      "inputs": [
        {
          "internalType": "uint256",
          "name": "id",
          "type": "uint256"
        }
      ],
      "name": "placeBid",
      "outputs": [
        {
          "internalType": "bool",
          "name": "success",
          "type": "bool"
        }
      ],
      "stateMutability": "payable",
      "type": "function",
      "payable": true
    },
    {
      "inputs": [
        {
          "internalType": "uint256",
          "name": "id",
          "type": "uint256"
        }
      ],
      "name": "withdraw",
      "outputs": [
        {
          "internalType": "bool",
          "name": "success",
          "type": "bool"
        }
      ],
      "stateMutability": "payable",
      "type": "function",
      "payable": true
    }
  ],
  "bytecode": "0x60806040526000601160006101000a81548160ff0219169083151502179055503480156200002c57600080fd5b506040518060400160405280600481526020017f44415254000000000000000000000000000000000000000000000000000000008152506040518060400160405280600381526020017f4152540000000000000000000000000000000000000000000000000000000000815250620000b16301ffc9a760e01b6200017460201b60201c565b8160069080519060200190620000c99291906200027d565b508060079080519060200190620000e29291906200027d565b50620000fb6380ac58cd60e01b6200017460201b60201c565b62000113635b5e139f60e01b6200017460201b60201c565b6200012b63780e9d6360e01b6200017460201b60201c565b505033600b60006101000a81548173ffffffffffffffffffffffffffffffffffffffff021916908373ffffffffffffffffffffffffffffffffffffffff1602179055506200032c565b63ffffffff60e01b817bffffffffffffffffffffffffffffffffffffffffffffffffffffffff1916141562000211576040517f08c379a000000000000000000000000000000000000000000000000000000000815260040180806020018281038252601c8152602001807f4552433136353a20696e76616c696420696e746572666163652069640000000081525060200191505060405180910390fd5b6001600080837bffffffffffffffffffffffffffffffffffffffffffffffffffffffff19167bffffffffffffffffffffffffffffffffffffffffffffffffffffffff1916815260200190815260200160002060006101000a81548160ff02191690831515021790555050565b828054600181600116156101000203166002900490600052602060002090601f016020900481019282601f10620002c057805160ff1916838001178555620002f1565b82800160010185558215620002f1579182015b82811115620002f0578251825591602001919060010190620002d3565b5b50905062000300919062000304565b5090565b6200032991905b80821115620003255760008160009055506001016200030b565b5090565b90565b614d74806200033c6000396000f3fe6080604052600436106101b75760003560e01c806368bae934116100ec578063a22cb4651161008a578063b88d4fde11610064578063b88d4fde14610d78578063c87b56dd14610e8a578063dfad2a3514610f3e578063e985e9c514610f69576101b7565b8063a22cb46514610c8b578063aa46a40014610ce8578063b83ea81014610d13576101b7565b80638da5cb5b116100c65780638da5cb5b14610b1857806395d89b4114610b6f57806396b5a75514610bff5780639979ef4514610c45576101b7565b806368bae934146108a25780636c0360eb14610a2357806370a0823114610ab3576101b7565b80632e1a7d4d1161015957806342842e0e1161013357806342842e0e146106db578063454a2ab3146107565780634f6ccce7146107d85780636352211e14610827576101b7565b80632e1a7d4d146104a95780632f745c59146104ef57806331a545f71461055e576101b7565b8063095ea7b311610195578063095ea7b31461033957806318160ddd1461039457806323b872dd146103bf57806326fe30651461043a576101b7565b806301ffc9a7146101bc57806306fdde031461022e578063081812fc146102be575b600080fd5b3480156101c857600080fd5b50610214600480360360208110156101df57600080fd5b8101908080357bffffffffffffffffffffffffffffffffffffffffffffffffffffffff19169060200190929190505050610ff2565b604051808215151515815260200191505060405180910390f35b34801561023a57600080fd5b50610243611059565b6040518080602001828103825283818151815260200191508051906020019080838360005b83811015610283578082015181840152602081019050610268565b50505050905090810190601f1680156102b05780820380516001836020036101000a031916815260200191505b509250505060405180910390f35b3480156102ca57600080fd5b506102f7600480360360208110156102e157600080fd5b81019080803590602001909291905050506110fb565b604051808273ffffffffffffffffffffffffffffffffffffffff1673ffffffffffffffffffffffffffffffffffffffff16815260200191505060405180910390f35b34801561034557600080fd5b506103926004803603604081101561035c57600080fd5b81019080803573ffffffffffffffffffffffffffffffffffffffff16906020019092919080359060200190929190505050611196565b005b3480156103a057600080fd5b506103a96112da565b6040518082815260200191505060405180910390f35b3480156103cb57600080fd5b50610438600480360360608110156103e257600080fd5b81019080803573ffffffffffffffffffffffffffffffffffffffff169060200190929190803573ffffffffffffffffffffffffffffffffffffffff169060200190929190803590602001909291905050506112eb565b005b34801561044657600080fd5b506104936004803603604081101561045d57600080fd5b8101908080359060200190929190803573ffffffffffffffffffffffffffffffffffffffff169060200190929190505050611361565b6040518082815260200191505060405180910390f35b6104d5600480360360208110156104bf57600080fd5b8101908080359060200190929190505050611386565b604051808215151515815260200191505060405180910390f35b3480156104fb57600080fd5b506105486004803603604081101561051257600080fd5b81019080803573ffffffffffffffffffffffffffffffffffffffff169060200190929190803590602001909291905050506118f4565b6040518082815260200191505060405180910390f35b34801561056a57600080fd5b506106d9600480360360a081101561058157600080fd5b8101908080359060200190929190803590602001906401000000008111156105a857600080fd5b8201836020820111156105ba57600080fd5b803590602001918460018302840111640100000000831117156105dc57600080fd5b91908080601f016020809104026020016040519081016040528093929190818152602001838380828437600081840152601f19601f82011690508083019250505050505050919291929080359060200190929190803590602001909291908035906020019064010000000081111561065357600080fd5b82018360208201111561066557600080fd5b8035906020019184600183028401116401000000008311171561068757600080fd5b91908080601f016020809104026020016040519081016040528093929190818152602001838380828437600081840152601f19601f82011690508083019250505050505050919291929050505061194f565b005b3480156106e757600080fd5b50610754600480360360608110156106fe57600080fd5b81019080803573ffffffffffffffffffffffffffffffffffffffff169060200190929190803573ffffffffffffffffffffffffffffffffffffffff16906020019092919080359060200190929190505050611c42565b005b34801561076257600080fd5b5061078f6004803603602081101561077957600080fd5b8101908080359060200190929190505050611c62565b604051808381526020018273ffffffffffffffffffffffffffffffffffffffff1673ffffffffffffffffffffffffffffffffffffffff1681526020019250505060405180910390f35b3480156107e457600080fd5b50610811600480360360208110156107fb57600080fd5b8101908080359060200190929190505050611ca6565b6040518082815260200191505060405180910390f35b34801561083357600080fd5b506108606004803603602081101561084a57600080fd5b8101908080359060200190929190505050611cc9565b604051808273ffffffffffffffffffffffffffffffffffffffff1673ffffffffffffffffffffffffffffffffffffffff16815260200191505060405180910390f35b3480156108ae57600080fd5b506108db600480360360208110156108c557600080fd5b8101908080359060200190929190505050611d00565b604051808a81526020018981526020018060200188815260200187815260200186815260200185151515158152602001806020018473ffffffffffffffffffffffffffffffffffffffff1673ffffffffffffffffffffffffffffffffffffffff16815260200183810383528a818151815260200191508051906020019080838360005b8381101561097957808201518184015260208101905061095e565b50505050905090810190601f1680156109a65780820380516001836020036101000a031916815260200191505b50838103825285818151815260200191508051906020019080838360005b838110156109df5780820151818401526020810190506109c4565b50505050905090810190601f168015610a0c5780820380516001836020036101000a031916815260200191505b509b50505050505050505050505060405180910390f35b348015610a2f57600080fd5b50610a386120bc565b6040518080602001828103825283818151815260200191508051906020019080838360005b83811015610a78578082015181840152602081019050610a5d565b50505050905090810190601f168015610aa55780820380516001836020036101000a031916815260200191505b509250505060405180910390f35b348015610abf57600080fd5b50610b0260048036036020811015610ad657600080fd5b81019080803573ffffffffffffffffffffffffffffffffffffffff16906020019092919050505061215e565b6040518082815260200191505060405180910390f35b348015610b2457600080fd5b50610b2d612233565b604051808273ffffffffffffffffffffffffffffffffffffffff1673ffffffffffffffffffffffffffffffffffffffff16815260200191505060405180910390f35b348015610b7b57600080fd5b50610b84612259565b6040518080602001828103825283818151815260200191508051906020019080838360005b83811015610bc4578082015181840152602081019050610ba9565b50505050905090810190601f168015610bf15780820380516001836020036101000a031916815260200191505b509250505060405180910390f35b610c2b60048036036020811015610c1557600080fd5b81019080803590602001909291905050506122fb565b604051808215151515815260200191505060405180910390f35b610c7160048036036020811015610c5b57600080fd5b810190808035906020019092919050505061263b565b604051808215151515815260200191505060405180910390f35b348015610c9757600080fd5b50610ce660048036036040811015610cae57600080fd5b81019080803573ffffffffffffffffffffffffffffffffffffffff169060200190929190803515159060200190929190505050612ef8565b005b348015610cf457600080fd5b50610cfd6130b0565b6040518082815260200191505060405180910390f35b348015610d1f57600080fd5b50610d6260048036036060811015610d3657600080fd5b8101908080359060200190929190803515159060200190929190803590602001909291905050506130b6565b6040518082815260200191505060405180910390f35b348015610d8457600080fd5b50610e8860048036036080811015610d9b57600080fd5b81019080803573ffffffffffffffffffffffffffffffffffffffff169060200190929190803573ffffffffffffffffffffffffffffffffffffffff1690602001909291908035906020019092919080359060200190640100000000811115610e0257600080fd5b820183602082011115610e1457600080fd5b80359060200191846001830284011164010000000083111715610e3657600080fd5b91908080601f016020809104026020016040519081016040528093929190818152602001838380828437600081840152601f19601f820116905080830192505050505050509192919290505050613195565b005b348015610e9657600080fd5b50610ec360048036036020811015610ead57600080fd5b810190808035906020019092919050505061320d565b6040518080602001828103825283818151815260200191508051906020019080838360005b83811015610f03578082015181840152602081019050610ee8565b50505050905090810190601f168015610f305780820380516001836020036101000a031916815260200191505b509250505060405180910390f35b348015610f4a57600080fd5b50610f536134f6565b6040518082815260200191505060405180910390f35b348015610f7557600080fd5b50610fd860048036036040811015610f8c57600080fd5b81019080803573ffffffffffffffffffffffffffffffffffffffff169060200190929190803573ffffffffffffffffffffffffffffffffffffffff1690602001909291905050506134fc565b604051808215151515815260200191505060405180910390f35b6000806000837bffffffffffffffffffffffffffffffffffffffffffffffffffffffff19167bffffffffffffffffffffffffffffffffffffffffffffffffffffffff1916815260200190815260200160002060009054906101000a900460ff169050919050565b606060068054600181600116156101000203166002900480601f0160208091040260200160405190810160405280929190818152602001828054600181600116156101000203166002900480156110f15780601f106110c6576101008083540402835291602001916110f1565b820191906000526020600020905b8154815290600101906020018083116110d457829003601f168201915b5050505050905090565b600061110682613590565b61115b576040517f08c379a000000000000000000000000000000000000000000000000000000000815260040180806020018281038252602c815260200180614c3d602c913960400191505060405180910390fd5b6004600083815260200190815260200160002060009054906101000a900473ffffffffffffffffffffffffffffffffffffffff169050919050565b60006111a182611cc9565b90508073ffffffffffffffffffffffffffffffffffffffff168373ffffffffffffffffffffffffffffffffffffffff161415611228576040517f08c379a0000000000000000000000000000000000000000000000000000000008152600401808060200182810382526021815260200180614ced6021913960400191505060405180910390fd5b8073ffffffffffffffffffffffffffffffffffffffff166112476135ad565b73ffffffffffffffffffffffffffffffffffffffff1614806112765750611275816112706135ad565b6134fc565b5b6112cb576040517f08c379a0000000000000000000000000000000000000000000000000000000008152600401808060200182810382526038815260200180614b906038913960400191505060405180910390fd5b6112d583836135b5565b505050565b60006112e6600261366e565b905090565b6112fc6112f66135ad565b82613683565b611351576040517f08c379a0000000000000000000000000000000000000000000000000000000008152600401808060200182810382526031815260200180614d0e6031913960400191505060405180910390fd5b61135c838383613777565b505050565b600e602052816000526040600020602052806000526040600020600091509150505481565b600081611391614901565b600a6000838152602001908152602001600020604051806101400160405290816000820160009054906101000a900473ffffffffffffffffffffffffffffffffffffffff1673ffffffffffffffffffffffffffffffffffffffff1673ffffffffffffffffffffffffffffffffffffffff16815260200160018201548152602001600282018054600181600116156101000203166002900480601f0160208091040260200160405190810160405280929190818152602001828054600181600116156101000203166002900480156114a95780601f1061147e576101008083540402835291602001916114a9565b820191906000526020600020905b81548152906001019060200180831161148c57829003601f168201915b505050505081526020016003820160009054906101000a900460ff161515151581526020016004820154815260200160058201548152602001600682015481526020016007820160009054906101000a900460ff161515151581526020016007820160019054906101000a900460ff16151515158152602001600882018054600181600116156101000203166002900480601f0160208091040260200160405190810160405280929190818152602001828054600181600116156101000203166002900480156115ba5780601f1061158f576101008083540402835291602001916115ba565b820191906000526020600020905b81548152906001019060200180831161159d57829003601f168201915b5050505050815250509050806000015173ffffffffffffffffffffffffffffffffffffffff163373ffffffffffffffffffffffffffffffffffffffff16141561160257600080fd5b60011515600a600086815260200190815260200160002060070160009054906101000a900460ff1615151461163657600080fd5b60011515600a600086815260200190815260200160002060070160019054906101000a900460ff1615151461166a57600080fd5b60008060006010600088815260200190815260200160002090508060010160009054906101000a900473ffffffffffffffffffffffffffffffffffffffff1673ffffffffffffffffffffffffffffffffffffffff163373ffffffffffffffffffffffffffffffffffffffff16141561177f578060010160009054906101000a900473ffffffffffffffffffffffffffffffffffffffff169250600e600088815260200190815260200160002060008260010160009054906101000a900473ffffffffffffffffffffffffffffffffffffffff1673ffffffffffffffffffffffffffffffffffffffff1673ffffffffffffffffffffffffffffffffffffffff1681526020019081526020016000205491506117d6565b339250600e600088815260200190815260200160002060008473ffffffffffffffffffffffffffffffffffffffff1673ffffffffffffffffffffffffffffffffffffffff1681526020019081526020016000205491505b60008214156117e457600080fd5b81600e600089815260200190815260200160002060008573ffffffffffffffffffffffffffffffffffffffff1673ffffffffffffffffffffffffffffffffffffffff168152602001908152602001600020600082825403925050819055503373ffffffffffffffffffffffffffffffffffffffff166108fc839081150290604051600060405180830381858888f1935050505061188057600080fd5b8273ffffffffffffffffffffffffffffffffffffffff163373ffffffffffffffffffffffffffffffffffffffff16887f043b0257f82d3e2c722f6ac4756b9fbf0feedc637cc8e523608a89c559a9dc83856040518082815260200191505060405180910390a4600195505050505050919050565b600061194782600160008673ffffffffffffffffffffffffffffffffffffffff1673ffffffffffffffffffffffffffffffffffffffff1681526020019081526020016000206139ba90919063ffffffff16565b905092915050565b60008510156119c6576040517f08c379a000000000000000000000000000000000000000000000000000000000815260040180806020018281038252601c8152602001807f50726963652063616e6e6f74206265206c65737373207468616e20300000000081525060200191505060405180910390fd5b600d6000815480929190600101919050555060004290506040518061014001604052803373ffffffffffffffffffffffffffffffffffffffff16815260200187815260200186815260200160011515815260200185815260200182815260200184815260200160001515815260200160001515815260200183815250600a6000600d54815260200190815260200160002060008201518160000160006101000a81548173ffffffffffffffffffffffffffffffffffffffff021916908373ffffffffffffffffffffffffffffffffffffffff160217905550602082015181600101556040820151816002019080519060200190611ac4929190614970565b5060608201518160030160006101000a81548160ff0219169083151502179055506080820151816004015560a0820151816005015560c0820151816006015560e08201518160070160006101000a81548160ff0219169083151502179055506101008201518160070160016101000a81548160ff021916908315150217905550610120820151816008019080519060200190611b61929190614970565b509050503373ffffffffffffffffffffffffffffffffffffffff167fe4915238a88e31f00a90b7e08676caf678bc06d9da9b1a0ac3c86fc026859d01600d54848985886040518086815260200180602001858152602001848152602001838152602001828103825286818151815260200191508051906020019080838360005b83811015611bfc578082015181840152602081019050611be1565b50505050905090810190601f168015611c295780820380516001836020036101000a031916815260200191505b50965050505050505060405180910390a2505050505050565b611c5d83838360405180602001604052806000815250613195565b505050565b60106020528060005260406000206000915090508060000154908060010160009054906101000a900473ffffffffffffffffffffffffffffffffffffffff16905082565b600080611cbd8360026139d490919063ffffffff16565b50905080915050919050565b6000611cf982604051806060016040528060298152602001614bf2602991396002613a039092919063ffffffff16565b9050919050565b60008060606000806000806060600089600a600082815260200190815260200160002060030160009054906101000a900460ff16611da6576040517f08c379a00000000000000000000000000000000000000000000000000000000081526004018080602001828103825260098152602001807f4e6f7420466f756e64000000000000000000000000000000000000000000000081525060200191505060405180910390fd5b611dae614901565b600a60008d8152602001908152602001600020604051806101400160405290816000820160009054906101000a900473ffffffffffffffffffffffffffffffffffffffff1673ffffffffffffffffffffffffffffffffffffffff1673ffffffffffffffffffffffffffffffffffffffff16815260200160018201548152602001600282018054600181600116156101000203166002900480601f016020809104026020016040519081016040528092919081815260200182805460018160011615610100020316600290048015611ec65780601f10611e9b57610100808354040283529160200191611ec6565b820191906000526020600020905b815481529060010190602001808311611ea957829003601f168201915b505050505081526020016003820160009054906101000a900460ff161515151581526020016004820154815260200160058201548152602001600682015481526020016007820160009054906101000a900460ff161515151581526020016007820160019054906101000a900460ff16151515158152602001600882018054600181600116156101000203166002900480601f016020809104026020016040519081016040528092919081815260200182805460018160011615610100020316600290048015611fd75780601f10611fac57610100808354040283529160200191611fd7565b820191906000526020600020905b815481529060010190602001808311611fba57829003601f168201915b5050505050815250509050611fea6149f0565b601060008e8152602001908152602001600020604051806040016040529081600082015481526020016001820160009054906101000a900473ffffffffffffffffffffffffffffffffffffffff1673ffffffffffffffffffffffffffffffffffffffff1673ffffffffffffffffffffffffffffffffffffffff168152505090508c8260200151836040015183600001518560a001518660c001518760e0015188610120015189600001518696508191509b509b509b509b509b509b509b509b509b505050509193959799909294969850565b606060098054600181600116156101000203166002900480601f0160208091040260200160405190810160405280929190818152602001828054600181600116156101000203166002900480156121545780601f1061212957610100808354040283529160200191612154565b820191906000526020600020905b81548152906001019060200180831161213757829003601f168201915b5050505050905090565b60008073ffffffffffffffffffffffffffffffffffffffff168273ffffffffffffffffffffffffffffffffffffffff1614156121e5576040517f08c379a000000000000000000000000000000000000000000000000000000000815260040180806020018281038252602a815260200180614bc8602a913960400191505060405180910390fd5b61222c600160008473ffffffffffffffffffffffffffffffffffffffff1673ffffffffffffffffffffffffffffffffffffffff168152602001908152602001600020613a22565b9050919050565b600b60009054906101000a900473ffffffffffffffffffffffffffffffffffffffff1681565b606060078054600181600116156101000203166002900480601f0160208091040260200160405190810160405280929190818152602001828054600181600116156101000203166002900480156122f15780601f106122c6576101008083540402835291602001916122f1565b820191906000526020600020905b8154815290600101906020018083116122d457829003601f168201915b5050505050905090565b600080600a60008481526020019081526020016000209050600015158160070160009054906101000a900460ff1615151461233557600080fd5b426001826006015402826005015401101561262157600060106000858152602001908152602001600020905060018260070160006101000a81548160ff02191690831515021790555060008160000154141580156123a85750600115158260070160019054906101000a900460ff161515145b1561257c57600c600081548092919060010191905055506123ef8160010160009054906101000a900473ffffffffffffffffffffffffffffffffffffffff16600c54613a37565b612497600c54836002018054600181600116156101000203166002900480601f01602080910402602001604051908101604052809291908181526020018280546001816001161561010002031660029004801561248d5780601f106124625761010080835404028352916020019161248d565b820191906000526020600020905b81548152906001019060200180831161247057829003601f168201915b5050505050613a55565b8060000154600e600086815260200190815260200160002060008360010160009054906101000a900473ffffffffffffffffffffffffffffffffffffffff1673ffffffffffffffffffffffffffffffffffffffff1673ffffffffffffffffffffffffffffffffffffffff168152602001908152602001600020600082825403925050819055508160000160009054906101000a900473ffffffffffffffffffffffffffffffffffffffff1673ffffffffffffffffffffffffffffffffffffffff166108fc82600001549081150290604051600060405180830381858888f19350505050505b8060010160009054906101000a900473ffffffffffffffffffffffffffffffffffffffff1673ffffffffffffffffffffffffffffffffffffffff168260000160009054906101000a900473ffffffffffffffffffffffffffffffffffffffff1673ffffffffffffffffffffffffffffffffffffffff16857f5242a85bb77fd7a409b137e5184055c8d8f09259299447f56aca5dc69dce7f4160405160405180910390a4505b8060070160009054906101000a900460ff16915050919050565b600081612646614901565b600a6000838152602001908152602001600020604051806101400160405290816000820160009054906101000a900473ffffffffffffffffffffffffffffffffffffffff1673ffffffffffffffffffffffffffffffffffffffff1673ffffffffffffffffffffffffffffffffffffffff16815260200160018201548152602001600282018054600181600116156101000203166002900480601f01602080910402602001604051908101604052809291908181526020018280546001816001161561010002031660029004801561275e5780601f106127335761010080835404028352916020019161275e565b820191906000526020600020905b81548152906001019060200180831161274157829003601f168201915b505050505081526020016003820160009054906101000a900460ff161515151581526020016004820154815260200160058201548152602001600682015481526020016007820160009054906101000a900460ff161515151581526020016007820160019054906101000a900460ff16151515158152602001600882018054600181600116156101000203166002900480601f01602080910402602001604051908101604052809291908181526020018280546001816001161561010002031660029004801561286f5780601f106128445761010080835404028352916020019161286f565b820191906000526020600020905b81548152906001019060200180831161285257829003601f168201915b5050505050815250509050806000015173ffffffffffffffffffffffffffffffffffffffff163373ffffffffffffffffffffffffffffffffffffffff1614156128b757600080fd5b836128c0614901565b600a6000838152602001908152602001600020604051806101400160405290816000820160009054906101000a900473ffffffffffffffffffffffffffffffffffffffff1673ffffffffffffffffffffffffffffffffffffffff1673ffffffffffffffffffffffffffffffffffffffff16815260200160018201548152602001600282018054600181600116156101000203166002900480601f0160208091040260200160405190810160405280929190818152602001828054600181600116156101000203166002900480156129d85780601f106129ad576101008083540402835291602001916129d8565b820191906000526020600020905b8154815290600101906020018083116129bb57829003601f168201915b505050505081526020016003820160009054906101000a900460ff161515151581526020016004820154815260200160058201548152602001600682015481526020016007820160009054906101000a900460ff161515151581526020016007820160019054906101000a900460ff16151515158152602001600882018054600181600116156101000203166002900480601f016020809104026020016040519081016040528092919081815260200182805460018160011615610100020316600290048015612ae95780601f10612abe57610100808354040283529160200191612ae9565b820191906000526020600020905b815481529060010190602001808311612acc57829003601f168201915b50505050508152505090508060200151341015612b0557600080fd5b6000341415612b1357600080fd5b60006010600088815260200190815260200160002090506000600a6000898152602001908152602001600020905042600182600601540282600501540111612b5a57600080fd5b600015158160070160009054906101000a900460ff16151514612b7c57600080fd5b600034600e60008b815260200190815260200160002060003373ffffffffffffffffffffffffffffffffffffffff1673ffffffffffffffffffffffffffffffffffffffff1681526020019081526020016000205401905082600001548111612be357600080fd5b6000600e60008b815260200190815260200160002060008560010160009054906101000a900473ffffffffffffffffffffffffffffffffffffffff1673ffffffffffffffffffffffffffffffffffffffff1673ffffffffffffffffffffffffffffffffffffffff16815260200190815260200160002054905081600e60008c815260200190815260200160002060003373ffffffffffffffffffffffffffffffffffffffff1673ffffffffffffffffffffffffffffffffffffffff16815260200190815260200160002081905550808211612ce95780836004015483011115612cd457808460000181905550612ce4565b8260040154820184600001819055505b612e04565b8360010160009054906101000a900473ffffffffffffffffffffffffffffffffffffffff1673ffffffffffffffffffffffffffffffffffffffff163373ffffffffffffffffffffffffffffffffffffffff1614612e0057338460010160006101000a81548173ffffffffffffffffffffffffffffffffffffffff021916908373ffffffffffffffffffffffffffffffffffffffff16021790555080836004015483011115612def5760001515601160009054906101000a900460ff1615151415612dbb57808460000181905550612dea565b826004015483600101540184600001819055506001601160006101000a81548160ff0219169083151502179055505b612dff565b8260040154820184600001819055505b5b8190505b600015158360070160019054906101000a900460ff1615151415612e2c573484600001819055505b8360010160009054906101000a900473ffffffffffffffffffffffffffffffffffffffff1673ffffffffffffffffffffffffffffffffffffffff168a3373ffffffffffffffffffffffffffffffffffffffff167fe209fb7fe1214f754b59704eb777dbfb99e4a469eda593538d8fb30ca9681abc8585896000015460405180848152602001838152602001828152602001935050505060405180910390a460018360070160016101000a81548160ff021916908315150217905550600198505050505050505050919050565b612f006135ad565b73ffffffffffffffffffffffffffffffffffffffff168273ffffffffffffffffffffffffffffffffffffffff161415612fa1576040517f08c379a00000000000000000000000000000000000000000000000000000000081526004018080602001828103825260198152602001807f4552433732313a20617070726f766520746f2063616c6c65720000000000000081525060200191505060405180910390fd5b8060056000612fae6135ad565b73ffffffffffffffffffffffffffffffffffffffff1673ffffffffffffffffffffffffffffffffffffffff16815260200190815260200160002060008473ffffffffffffffffffffffffffffffffffffffff1673ffffffffffffffffffffffffffffffffffffffff16815260200190815260200160002060006101000a81548160ff0219169083151502179055508173ffffffffffffffffffffffffffffffffffffffff1661305b6135ad565b73ffffffffffffffffffffffffffffffffffffffff167f17307eab39ab6107e8899845ad3d59bd9653f200f220920489ca2b5937696c3183604051808215151515815260200191505060405180910390a35050565b600c5481565b6000600284848460405160200180848152602001831515151560f81b815260010182815260200193505050506040516020818303038152906040526040518082805190602001908083835b602083106131245780518252602082019150602081019050602083039250613101565b6001836020036101000a038019825116818451168082178552505050505050905001915050602060405180830381855afa158015613166573d6000803e3d6000fd5b5050506040513d602081101561317b57600080fd5b810190808051906020019092919050505090509392505050565b6131a66131a06135ad565b83613683565b6131fb576040517f08c379a0000000000000000000000000000000000000000000000000000000008152600401808060200182810382526031815260200180614d0e6031913960400191505060405180910390fd5b61320784848484613adf565b50505050565b606061321882613590565b61326d576040517f08c379a000000000000000000000000000000000000000000000000000000000815260040180806020018281038252602f815260200180614cbe602f913960400191505060405180910390fd5b6060600860008481526020019081526020016000208054600181600116156101000203166002900480601f0160208091040260200160405190810160405280929190818152602001828054600181600116156101000203166002900480156133165780601f106132eb57610100808354040283529160200191613316565b820191906000526020600020905b8154815290600101906020018083116132f957829003601f168201915b5050505050905060006009805460018160011615610100020316600290049050141561334557809150506134f1565b60008151111561341e5760098160405160200180838054600181600116156101000203166002900480156133b05780601f1061338e5761010080835404028352918201916133b0565b820191906000526020600020905b81548152906001019060200180831161339c575b505082805190602001908083835b602083106133e157805182526020820191506020810190506020830392506133be565b6001836020036101000a038019825116818451168082178552505050505050905001925050506040516020818303038152906040529150506134f1565b600961342984613b51565b60405160200180838054600181600116156101000203166002900480156134875780601f10613465576101008083540402835291820191613487565b820191906000526020600020905b815481529060010190602001808311613473575b505082805190602001908083835b602083106134b85780518252602082019150602081019050602083039250613495565b6001836020036101000a038019825116818451168082178552505050505050905001925050506040516020818303038152906040529150505b919050565b600d5481565b6000600560008473ffffffffffffffffffffffffffffffffffffffff1673ffffffffffffffffffffffffffffffffffffffff16815260200190815260200160002060008373ffffffffffffffffffffffffffffffffffffffff1673ffffffffffffffffffffffffffffffffffffffff16815260200190815260200160002060009054906101000a900460ff16905092915050565b60006135a6826002613c8190919063ffffffff16565b9050919050565b600033905090565b816004600083815260200190815260200160002060006101000a81548173ffffffffffffffffffffffffffffffffffffffff021916908373ffffffffffffffffffffffffffffffffffffffff160217905550808273ffffffffffffffffffffffffffffffffffffffff1661362883611cc9565b73ffffffffffffffffffffffffffffffffffffffff167f8c5be1e5ebec7d5bd14f71427d1e84f3dd0314c0f7b2291e5b200ac8c7c3b92560405160405180910390a45050565b600061367c82600001613c9b565b9050919050565b600061368e82613590565b6136e3576040517f08c379a000000000000000000000000000000000000000000000000000000000815260040180806020018281038252602c815260200180614b64602c913960400191505060405180910390fd5b60006136ee83611cc9565b90508073ffffffffffffffffffffffffffffffffffffffff168473ffffffffffffffffffffffffffffffffffffffff16148061375d57508373ffffffffffffffffffffffffffffffffffffffff16613745846110fb565b73ffffffffffffffffffffffffffffffffffffffff16145b8061376e575061376d81856134fc565b5b91505092915050565b8273ffffffffffffffffffffffffffffffffffffffff1661379782611cc9565b73ffffffffffffffffffffffffffffffffffffffff1614613803576040517f08c379a0000000000000000000000000000000000000000000000000000000008152600401808060200182810382526029815260200180614c956029913960400191505060405180910390fd5b600073ffffffffffffffffffffffffffffffffffffffff168273ffffffffffffffffffffffffffffffffffffffff161415613889576040517f08c379a0000000000000000000000000000000000000000000000000000000008152600401808060200182810382526024815260200180614b1a6024913960400191505060405180910390fd5b613894838383613cac565b61389f6000826135b5565b6138f081600160008673ffffffffffffffffffffffffffffffffffffffff1673ffffffffffffffffffffffffffffffffffffffff168152602001908152602001600020613cb190919063ffffffff16565b5061394281600160008573ffffffffffffffffffffffffffffffffffffffff1673ffffffffffffffffffffffffffffffffffffffff168152602001908152602001600020613ccb90919063ffffffff16565b5061395981836002613ce59092919063ffffffff16565b50808273ffffffffffffffffffffffffffffffffffffffff168473ffffffffffffffffffffffffffffffffffffffff167fddf252ad1be2c89b69c2b068fc378daa952ba7f163c4a11628f55a4df523b3ef60405160405180910390a4505050565b60006139c98360000183613d1a565b60001c905092915050565b6000806000806139e78660000186613d9d565b915091508160001c8160001c8090509350935050509250929050565b6000613a16846000018460001b84613e36565b60001c90509392505050565b6000613a3082600001613f2c565b9050919050565b613a51828260405180602001604052806000815250613f3d565b5050565b613a5e82613590565b613ab3576040517f08c379a000000000000000000000000000000000000000000000000000000000815260040180806020018281038252602c815260200180614c69602c913960400191505060405180910390fd5b80600860008481526020019081526020016000209080519060200190613ada929190614a20565b505050565b613aea848484613777565b613af684848484613fae565b613b4b576040517f08c379a0000000000000000000000000000000000000000000000000000000008152600401808060200182810382526032815260200180614ae86032913960400191505060405180910390fd5b50505050565b60606000821415613b99576040518060400160405280600181526020017f30000000000000000000000000000000000000000000000000000000000000008152509050613c7c565b600082905060005b60008214613bc3578080600101915050600a8281613bbb57fe5b049150613ba1565b6060816040519080825280601f01601f191660200182016040528015613bf85781602001600182028036833780820191505090505b50905060006001830390508593505b60008414613c7457600a8481613c1957fe5b0660300160f81b82828060019003935081518110613c3357fe5b60200101907effffffffffffffffffffffffffffffffffffffffffffffffffffffffffffff1916908160001a905350600a8481613c6c57fe5b049350613c07565b819450505050505b919050565b6000613c93836000018360001b6141f3565b905092915050565b600081600001805490509050919050565b505050565b6000613cc3836000018360001b614216565b905092915050565b6000613cdd836000018360001b6142fe565b905092915050565b6000613d11846000018460001b8473ffffffffffffffffffffffffffffffffffffffff1660001b61436e565b90509392505050565b600081836000018054905011613d7b576040517f08c379a0000000000000000000000000000000000000000000000000000000008152600401808060200182810382526022815260200180614ac66022913960400191505060405180910390fd5b826000018281548110613d8a57fe5b9060005260206000200154905092915050565b60008082846000018054905011613dff576040517f08c379a0000000000000000000000000000000000000000000000000000000008152600401808060200182810382526022815260200180614c1b6022913960400191505060405180910390fd5b6000846000018481548110613e1057fe5b906000526020600020906002020190508060000154816001015492509250509250929050565b60008084600101600085815260200190815260200160002054905060008114158390613efd576040517f08c379a00000000000000000000000000000000000000000000000000000000081526004018080602001828103825283818151815260200191508051906020019080838360005b83811015613ec2578082015181840152602081019050613ea7565b50505050905090810190601f168015613eef5780820380516001836020036101000a031916815260200191505b509250505060405180910390fd5b50846000016001820381548110613f1057fe5b9060005260206000209060020201600101549150509392505050565b600081600001805490509050919050565b613f47838361444a565b613f546000848484613fae565b613fa9576040517f08c379a0000000000000000000000000000000000000000000000000000000008152600401808060200182810382526032815260200180614ae86032913960400191505060405180910390fd5b505050565b6000613fcf8473ffffffffffffffffffffffffffffffffffffffff1661463e565b613fdc57600190506141eb565b606061417263150b7a0260e01b613ff16135ad565b888787604051602401808573ffffffffffffffffffffffffffffffffffffffff1673ffffffffffffffffffffffffffffffffffffffff1681526020018473ffffffffffffffffffffffffffffffffffffffff1673ffffffffffffffffffffffffffffffffffffffff16815260200183815260200180602001828103825283818151815260200191508051906020019080838360005b838110156140a1578082015181840152602081019050614086565b50505050905090810190601f1680156140ce5780820380516001836020036101000a031916815260200191505b5095505050505050604051602081830303815290604052907bffffffffffffffffffffffffffffffffffffffffffffffffffffffff19166020820180517bffffffffffffffffffffffffffffffffffffffffffffffffffffffff8381831617835250505050604051806060016040528060328152602001614ae8603291398773ffffffffffffffffffffffffffffffffffffffff166146519092919063ffffffff16565b9050600081806020019051602081101561418b57600080fd5b8101908080519060200190929190505050905063150b7a0260e01b7bffffffffffffffffffffffffffffffffffffffffffffffffffffffff1916817bffffffffffffffffffffffffffffffffffffffffffffffffffffffff191614925050505b949350505050565b600080836001016000848152602001908152602001600020541415905092915050565b600080836001016000848152602001908152602001600020549050600081146142f2576000600182039050600060018660000180549050039050600086600001828154811061426157fe5b906000526020600020015490508087600001848154811061427e57fe5b90600052602060002001819055506001830187600101600083815260200190815260200160002081905550866000018054806142b657fe5b600190038181906000526020600020016000905590558660010160008781526020019081526020016000206000905560019450505050506142f8565b60009150505b92915050565b600061430a8383614669565b614363578260000182908060018154018082558091505060019003906000526020600020016000909190919091505582600001805490508360010160008481526020019081526020016000208190555060019050614368565b600090505b92915050565b600080846001016000858152602001908152602001600020549050600081141561441557846000016040518060400160405280868152602001858152509080600181540180825580915050600190039060005260206000209060020201600090919091909150600082015181600001556020820151816001015550508460000180549050856001016000868152602001908152602001600020819055506001915050614443565b8285600001600183038154811061442857fe5b90600052602060002090600202016001018190555060009150505b9392505050565b600073ffffffffffffffffffffffffffffffffffffffff168273ffffffffffffffffffffffffffffffffffffffff1614156144ed576040517f08c379a00000000000000000000000000000000000000000000000000000000081526004018080602001828103825260208152602001807f4552433732313a206d696e7420746f20746865207a65726f206164647265737381525060200191505060405180910390fd5b6144f681613590565b15614569576040517f08c379a000000000000000000000000000000000000000000000000000000000815260040180806020018281038252601c8152602001807f4552433732313a20746f6b656e20616c7265616479206d696e7465640000000081525060200191505060405180910390fd5b61457560008383613cac565b6145c681600160008573ffffffffffffffffffffffffffffffffffffffff1673ffffffffffffffffffffffffffffffffffffffff168152602001908152602001600020613ccb90919063ffffffff16565b506145dd81836002613ce59092919063ffffffff16565b50808273ffffffffffffffffffffffffffffffffffffffff16600073ffffffffffffffffffffffffffffffffffffffff167fddf252ad1be2c89b69c2b068fc378daa952ba7f163c4a11628f55a4df523b3ef60405160405180910390a45050565b600080823b905060008111915050919050565b6060614660848460008561468c565b90509392505050565b600080836001016000848152602001908152602001600020541415905092915050565b6060824710156146e7576040517f08c379a0000000000000000000000000000000000000000000000000000000008152600401808060200182810382526026815260200180614b3e6026913960400191505060405180910390fd5b6146f08561463e565b614762576040517f08c379a000000000000000000000000000000000000000000000000000000000815260040180806020018281038252601d8152602001807f416464726573733a2063616c6c20746f206e6f6e2d636f6e747261637400000081525060200191505060405180910390fd5b600060608673ffffffffffffffffffffffffffffffffffffffff1685876040518082805190602001908083835b602083106147b2578051825260208201915060208101905060208303925061478f565b6001836020036101000a03801982511681845116808217855250505050505090500191505060006040518083038185875af1925050503d8060008114614814576040519150601f19603f3d011682016040523d82523d6000602084013e614819565b606091505b5091509150614829828286614835565b92505050949350505050565b60608315614845578290506148fa565b6000835111156148585782518084602001fd5b816040517f08c379a00000000000000000000000000000000000000000000000000000000081526004018080602001828103825283818151815260200191508051906020019080838360005b838110156148bf5780820151818401526020810190506148a4565b50505050905090810190601f1680156148ec5780820380516001836020036101000a031916815260200191505b509250505060405180910390fd5b9392505050565b604051806101400160405280600073ffffffffffffffffffffffffffffffffffffffff1681526020016000815260200160608152602001600015158152602001600081526020016000815260200160008152602001600015158152602001600015158152602001606081525090565b828054600181600116156101000203166002900490600052602060002090601f016020900481019282601f106149b157805160ff19168380011785556149df565b828001600101855582156149df579182015b828111156149de5782518255916020019190600101906149c3565b5b5090506149ec9190614aa0565b5090565b604051806040016040528060008152602001600073ffffffffffffffffffffffffffffffffffffffff1681525090565b828054600181600116156101000203166002900490600052602060002090601f016020900481019282601f10614a6157805160ff1916838001178555614a8f565b82800160010185558215614a8f579182015b82811115614a8e578251825591602001919060010190614a73565b5b509050614a9c9190614aa0565b5090565b614ac291905b80821115614abe576000816000905550600101614aa6565b5090565b9056fe456e756d657261626c655365743a20696e646578206f7574206f6620626f756e64734552433732313a207472616e7366657220746f206e6f6e20455243373231526563656976657220696d706c656d656e7465724552433732313a207472616e7366657220746f20746865207a65726f2061646472657373416464726573733a20696e73756666696369656e742062616c616e636520666f722063616c6c4552433732313a206f70657261746f7220717565727920666f72206e6f6e6578697374656e7420746f6b656e4552433732313a20617070726f76652063616c6c6572206973206e6f74206f776e6572206e6f7220617070726f76656420666f7220616c6c4552433732313a2062616c616e636520717565727920666f7220746865207a65726f20616464726573734552433732313a206f776e657220717565727920666f72206e6f6e6578697374656e7420746f6b656e456e756d657261626c654d61703a20696e646578206f7574206f6620626f756e64734552433732313a20617070726f76656420717565727920666f72206e6f6e6578697374656e7420746f6b656e4552433732314d657461646174613a2055524920736574206f66206e6f6e6578697374656e7420746f6b656e4552433732313a207472616e73666572206f6620746f6b656e2074686174206973206e6f74206f776e4552433732314d657461646174613a2055524920717565727920666f72206e6f6e6578697374656e7420746f6b656e4552433732313a20617070726f76616c20746f2063757272656e74206f776e65724552433732313a207472616e736665722063616c6c6572206973206e6f74206f776e6572206e6f7220617070726f766564a2646970667358221220c190b52b5910b5d64c41065f6f15a01a62e6c4c1a825019c4ce82e19b85c2b5464736f6c63430006030033",
  "source": "pragma solidity ^0.6.3;\n\nimport \"@openzeppelin/contracts/token/ERC721/ERC721.sol\";\nimport \"@openzeppelin/contracts/math/SafeMath.sol\";\n\ncontract SecureAuction is ERC721 {\n   \n    using SafeMath for uint256;  //For Future use\n\n\n\n    /****     STATE VARIABLES      ***** */\n\n\n    //static and constant state variables\n    mapping(uint256 => AuctionItem) private _auctionItems;  //Map id to auctionItem\n    address public owner;   // contract owner\n\n    //dynamic and changing state variables\n    uint256 public _tokenIds;  // Unique Image ID that are tokenized\n    uint256 public _auctionItemIds; // Unique ID of images for sale but not tokenized    \n \n    mapping(uint256=>mapping(address => uint256)) public fundsByBidder; //map _auctionItemIds to fundsByBidder    \n    mapping(int256=>uint256) token; //Map tokenIds to _auctionItemIds so as to connect to struct.\n    mapping(uint256=>bidding) public bid;  //mapping tokenid to bidding\n    bool firsttime = false;  //to mart first successfull bid\n\n\n\n\n    /*****      EVENTS      ****** */\n\n\n    event LogBid(address indexed bidder, uint indexed auctionItemId, uint bid, address indexed highestBidder, uint highestBid, uint highestBindingBid);  \n    event LogWithdrawal(uint indexed auctionItemId, address indexed withdrawer, address indexed withdrawalAccount, uint amount);\n    event LogCanceled(uint256 indexed auctionItemId,address indexed seller,address indexed winner);\n    event LogAddItem(uint256 _auctionItemIds, string name, address payable indexed seller, uint256 price, uint nowTime, uint timePeriod);\n\n  \n\n    /*****     STRUCTS      ****** */\n\n\n    struct AuctionItem {\n        address payable seller; //address of seller\n        uint256 minbid; //minimum price by auctioner\n        string tokenURI;  //IPFS URL\n        bool exists;    //token by id exists or not\n        uint bidIncrement; //incremention of bid\n        uint time;          // auction item creation timestamp\n        uint timePeriod;    // duration of auction\n        bool cancelled;     // checks if auction is closed\n        bool auctionstarted;    // checks if aution is open\n        string name;        // name of auction item\n    }\n   \n    struct bidding{\n        uint highestBindingBid; // highestBindingBid of the tokenid(tokenized auctionId)\n        address payable highestBidder; //current highest bidder\n    }\n\n\n    /****     CONSTRUCTOR      ***** */\n \n    //Note: Token is minted after it is sold or after auction ends\n    //Initializing ERC721\n    constructor() public ERC721(\"DART\", \"ART\"){\n        owner=msg.sender;\n    }\n\n    /****     MODIFIERS      ***** */\n \n    // check if item exists\n    modifier auctionItemExist(uint256 id) {\n        require(_auctionItems[id].exists, \"Not Found\");\n        _;\n    }\n   \n    // ensure caller is auction item owner\n    modifier onlyNotOwner(uint256 id) {\n        AuctionItem memory auctionItem = _auctionItems[id];  \n        if (msg.sender == auctionItem.seller) revert();\n        _;\n    }\n\n    modifier onlyOwner(uint256 id)\n    {\n        AuctionItem memory auctionItem = _auctionItems[id];  \n        if (msg.sender != auctionItem.seller) revert();\n         _;\n    }\n     \n    modifier minbid(uint256 id){\n        AuctionItem memory auctionItem = _auctionItems[id];\n        if(msg.value<auctionItem.minbid) revert();\n        _;\n    }\n\n\n\n    /****     AUCTION ITEM FUNCTIONS      ***** */\n \n\n    function addAuctionItem(uint256 price, string memory tokenURI, uint _bidincrement, uint timePeriod, string memory name) public {\n        require(price >= 0, \"Price cannot be lesss than 0\");\n\n        _auctionItemIds++;\n        uint nowTime = now;\n        _auctionItems[_auctionItemIds] = AuctionItem(msg.sender, price, tokenURI, true, _bidincrement, nowTime, timePeriod,false,false,name);\n        emit LogAddItem(_auctionItemIds, name, msg.sender, price, nowTime, timePeriod);\n    }\n\n       \n    //get auction item info\n    function getAuctionItem(uint256 id)\n        public\n        view\n        auctionItemExist(id)\n        returns (uint256, uint256, string memory, uint, uint, uint, bool, string memory, address payable)\n    {\n        AuctionItem memory auctionItem = _auctionItems[id];\n        bidding memory bid = bid[id];\n        return (id, auctionItem.minbid, auctionItem.tokenURI, bid.highestBindingBid,auctionItem.time,auctionItem.timePeriod,auctionItem.cancelled,auctionItem.name,auctionItem.seller);\n    }\n   \n\n\n\n\n    /****     AUCTION FUNCTIONS      ***** */\n \n   \n    //Cancel auction\n    function cancelAuction(uint256 id) \n        public \n        payable \n        returns (bool success)\n    {\n        AuctionItem storage auctionItem = _auctionItems[id];  \n        require(auctionItem.cancelled == false);\n\n        if((auctionItem.time + (auctionItem.timePeriod * 1 seconds) < now)){  //mint token if auctionstarted and not expired\n            bidding storage bid = bid[id];\n            auctionItem.cancelled = true;\n            // the auction's owner should be allowed to withdraw the highestBindingBid\n            \n            if (bid.highestBindingBid != 0 && auctionItem.auctionstarted == true){\n                _tokenIds++;\n                //token[_tokenIds] = _auctionItemIds;    \n                _safeMint(bid.highestBidder, _tokenIds);\n                _setTokenURI(_tokenIds, auctionItem.tokenURI);\n                fundsByBidder[id][bid.highestBidder] -= bid.highestBindingBid;\n\n                // send the funds\n                (auctionItem.seller).send(bid.highestBindingBid); \n            }\n\n            LogCanceled(id,auctionItem.seller,bid.highestBidder);\n        }\n        return auctionItem.cancelled;   \n    }\n   \n   function generateSHA256Bytes32(uint256 value, bool fake, uint256 secret)\n        public\n        view\n        returns (bytes32)\n    {\n        return sha256(abi.encodePacked(value, fake, secret));\n    }\n\n\n    function placeBid(uint256 id) \n        public\n        payable\n        onlyNotOwner(id)\n        minbid(id)\n        returns (bool success)\n    {  \n    \n        // reject payments of 0 ETH\n        if (msg.value == 0) revert();\n    \n        // calculate the user's total bid based on the current amount they've sent to the contract\n        // plus whatever has been sent with this transaction\n        bidding storage bid = bid[id];\n        AuctionItem storage auctionItem = _auctionItems[id];  \n        require((auctionItem.time + (auctionItem.timePeriod * 1 seconds) > now));\n        require(auctionItem.cancelled == false);\n    \n        uint newBid = fundsByBidder[id][msg.sender] + msg.value;\n\n        // if the user isn't even willing to overbid the highest binding bid, there's nothing for us\n        // to do except revert the transaction.\n        if (newBid <= bid.highestBindingBid) revert();\n\n        // grab the previous highest bid (before updating fundsByBidder, in case msg.sender is the\n        // highestBidder and is just increasing their maximum bid).\n        uint highestBid = fundsByBidder[id][bid.highestBidder];\n\n        fundsByBidder[id][msg.sender] = newBid;\n\n        if (newBid <= highestBid) {\n            \n            if(newBid + auctionItem.bidIncrement > highestBid){\n                bid.highestBindingBid = highestBid;\n            }\n            else {\n                bid.highestBindingBid = newBid + auctionItem.bidIncrement;\n            }\n        } else {\n\n            if (msg.sender != bid.highestBidder) {\n                bid.highestBidder = msg.sender;\n\n                if(newBid + auctionItem.bidIncrement > highestBid){\n                    if(firsttime == false){\n                        bid.highestBindingBid = highestBid;\n                    }\n                    else{\n                        bid.highestBindingBid = auctionItem.minbid + auctionItem.bidIncrement;\n                        firsttime=true;\n                    }\n                }\n                else{\n                    bid.highestBindingBid = newBid + auctionItem.bidIncrement;\n                }\n            }\n\n            highestBid = newBid;\n        }\n\n        if(auctionItem.auctionstarted == false){\n            bid.highestBindingBid = msg.value;\n        }\n\n        LogBid(msg.sender, id, newBid, bid.highestBidder, highestBid, bid.highestBindingBid);\n        auctionItem.auctionstarted = true;\n        return true;\n    }\n   \n    function withdraw(uint256 id) \n        public \n        payable \n        onlyNotOwner(id)\n        returns (bool success)\n    {  \n        require(_auctionItems[id].cancelled == true);\n        require(_auctionItems[id].auctionstarted == true);\n        address payable withdrawalAccount;\n        uint withdrawalAmount;\n        bidding storage bid = bid[id];\n   \n        if (msg.sender == bid.highestBidder) {\n            // the highest bidder should only be allowed to withdraw the difference between their\n            // highest bid and the highestBindingBid\n            withdrawalAccount = bid.highestBidder;\n            withdrawalAmount = fundsByBidder[id][bid.highestBidder];\n        }\n        else {\n            // anyone who participated but did not win the auction should be allowed to withdraw\n            // the full amount of their funds\n            withdrawalAccount = msg.sender;\n            withdrawalAmount = fundsByBidder[id][withdrawalAccount];\n        }\n\n        if (withdrawalAmount == 0) revert();\n\n        fundsByBidder[id][withdrawalAccount] -= withdrawalAmount;\n\n        // send the funds\n        if (!msg.sender.send(withdrawalAmount)) revert();\n\n        LogWithdrawal(id, msg.sender, withdrawalAccount, withdrawalAmount);\n\n        return true;\n    }\n       \n}\n",
  "sourcePath": "C:\\stockkartik\\mangshir\\poush\\Capstone\\src\\contracts\\SecureAuction.sol",
  "compiler": {
    "name": "solc",
    "version": "0.6.3+commit.8dda9521.Emscripten.clang"
  },
  "schemaVersion": "3.4.3",
  "updatedAt": "2021-12-27T08:43:33.995Z",
  "networkType": "ethereum",
  "devdoc": {
    "methods": {
      "approve(address,uint256)": {
        "details": "See {IERC721-approve}."
      },
      "balanceOf(address)": {
        "details": "See {IERC721-balanceOf}."
      },
      "baseURI()": {
        "details": "Returns the base URI set via {_setBaseURI}. This will be automatically added as a prefix in {tokenURI} to each token's URI, or to the token ID if no specific URI is set for that token ID."
      },
      "getApproved(uint256)": {
        "details": "See {IERC721-getApproved}."
      },
      "isApprovedForAll(address,address)": {
        "details": "See {IERC721-isApprovedForAll}."
      },
      "name()": {
        "details": "See {IERC721Metadata-name}."
      },
      "ownerOf(uint256)": {
        "details": "See {IERC721-ownerOf}."
      },
      "safeTransferFrom(address,address,uint256)": {
        "details": "See {IERC721-safeTransferFrom}."
      },
      "safeTransferFrom(address,address,uint256,bytes)": {
        "details": "See {IERC721-safeTransferFrom}."
      },
      "setApprovalForAll(address,bool)": {
        "details": "See {IERC721-setApprovalForAll}."
      },
      "supportsInterface(bytes4)": {
        "details": "See {IERC165-supportsInterface}.     * Time complexity O(1), guaranteed to always use less than 30 000 gas."
      },
      "symbol()": {
        "details": "See {IERC721Metadata-symbol}."
      },
      "tokenByIndex(uint256)": {
        "details": "See {IERC721Enumerable-tokenByIndex}."
      },
      "tokenOfOwnerByIndex(address,uint256)": {
        "details": "See {IERC721Enumerable-tokenOfOwnerByIndex}."
      },
      "tokenURI(uint256)": {
        "details": "See {IERC721Metadata-tokenURI}."
      },
      "totalSupply()": {
        "details": "See {IERC721Enumerable-totalSupply}."
      },
      "transferFrom(address,address,uint256)": {
        "details": "See {IERC721-transferFrom}."
      }
    }
  },
  "userdoc": {
    "methods": {
      "addAuctionItem(uint256,string,uint256,uint256,string)": {
        "notice": "**     AUCTION ITEM FUNCTIONS      ***** "
      },
      "cancelAuction(uint256)": {
        "notice": "**     AUCTION FUNCTIONS      ***** "
      },
      "constructor": "**     CONSTRUCTOR      ***** "
    }
  }
}